:100000000C945D000C947A000C947A000C947A00A5
:100010000C947A000C947A000C947A000C947A0078
:100020000C947A000C94D2010C947A000C947A000F
:100030000C947A000C9431020C947A000C947A009F
:100040000C9488010C947A000C947A000C947A0039
:100050000C947A000C947A000C947A000C947A0038
:100060000C947A000C947A00000000002400270011
:100070002A0000000000250028002B0004040404CE
:100080000404040402020202020203030303030342
:10009000010204081020408001020408102001021F
:1000A00004081020000000080002010000030407FB
:1000B0000000000000000000E40211241FBECFEF8A
:1000C000D8E0DEBFCDBF21E0A0E0B1E001C01D92CD
:1000D000A231B207E1F710E0CDE5D0E004C02197EE
:1000E000FE010E94EB02CC35D107C9F70E945602EF
:1000F0000C94F1020C94000090E0FC01EC55FF4FD1
:100100002491FC01E057FF4F3491FC01E458FF4F6C
:10011000E491EE23C9F0222339F0233001F1A8F451
:10012000213019F1223029F1F0E0EE0FFF1FEE58D7
:10013000FF4FA591B4918FB7F894EC91611126C04F
:1001400030953E233C938FBF08952730A9F0283087
:10015000C9F0243049F7809180008F7D03C08091E1
:1001600080008F7780938000DFCF84B58F7784BD48
:10017000DBCF84B58F7DFBCF8091B0008F778093EC
:10018000B000D2CF8091B0008F7DF9CF3E2BDACF77
:10019000CF93DF9390E0FC01E057FF4F2491845808
:1001A0009F4FFC0184918823D1F090E0880F991F24
:1001B000FC01E859FF4FA591B491FC01EE58FF4FA7
:1001C000C591D49161110EC09FB7F8948C91E22F24
:1001D000E0958E238C932881E223E8839FBFDF91F3
:1001E000CF9108958FB7F894EC91E22BEC938FBFE9
:1001F000F6CF3FB7F89480910C0190910D01A0913A
:100200000E01B0910F0126B5A89B05C02F3F19F034
:100210000196A11DB11D3FBFBA2FA92F982F882786
:10022000BC01CD01620F711D811D911D42E0660F61
:10023000771F881F991F4A95D1F708958F929F9233
:10024000AF92BF92CF92DF92EF92FF926B017C014F
:100250000E94F9004B015C01C114D104E104F104D6
:10026000B9F00E94F900681979098A099B09683E6A
:1002700073408105910580F321E0C21AD108E1089D
:10028000F10888EE880E83E0981EA11CB11CE4CF13
:10029000FF90EF90DF90CF90BF90AF909F908F90A6
:1002A0000895CF93DF93D82FC62F61E00E947C0082
:1002B00061E08C2F0E947C0068EC70E080E090E0B0
:1002C0000E941E0160E08D2F0E947C0060E08C2F58
:1002D0000E947C0068EC70E080E090E0DF91CF91BC
:1002E0000C941E01CF93C82F61E00E947C0068EC43
:1002F00070E080E090E00E941E0160E08C2F0E9480
:100300007C0068EC70E080E090E0CF910C941E01DE
:100310001F920F920FB60F9211242F933F938F933A
:100320009F93AF93BF938091080190910901A09191
:100330000A01B0910B013091070123E0230F2D3703
:1003400058F50196A11DB11D209307018093080166
:1003500090930901A0930A01B0930B0180910C01C5
:1003600090910D01A0910E01B0910F010196A11D78
:10037000B11D80930C0190930D01A0930E01B093D9
:100380000F01BF91AF919F918F913F912F910F904E
:100390000FBE0F901F90189526E8230F0296A11DFF
:1003A000B11DD2CF1F920F920FB60F9211242F932F
:1003B0003F934F935F936F937F938F939F93AF93ED
:1003C000BF93EF93FF938091050190910601809375
:1003D000B2008091010190910201A0910301B091BE
:1003E00004010196A11DB11D8093010190930201AA
:1003F000A0930301B0930401809101019091020147
:10040000A0910301B091040180910001811118C0F5
:1004100081E0809300018091010190910201A091FF
:100420000301B09104018093010190930201A09314
:100430000301B0930401F0E0E0E00995109200019F
:10044000FF91EF91BF91AF919F918F917F916F91AC
:100450005F914F913F912F910F900FBE0F901F9082
:1004600018951F920F920FB60F9211242F933F935E
:100470004F935F936F937F938F939F93AF93BF93AC
:10048000EF93FF93F0E0E0E00995FF91EF91BF91CA
:10049000AF919F918F917F916F915F914F913F911C
:1004A0002F910F900FBE0F901F901895789484B5E0
:1004B000826084BD84B5816084BD85B5826085BD60
:1004C00085B5816085BD80916E00816080936E00EE
:1004D00010928100809181008260809381008091E0
:1004E0008100816080938100809180008160809391
:1004F00080008091B10084608093B1008091B00051
:1005000081608093B00080917A00846080937A004B
:1005100080917A00826080937A0080917A00816075
:1005200080937A0080917A00806880937A0010929C
:10053000C10061E082E00E94C80061E083E00E94A7
:10054000C80061E086E00E94C80061E087E00E9488
:10055000C80061E089E00E94C80061E084E00E9478
:10056000C80060E08EE00E94C80060E08FE00E945A
:10057000C80060E080E10E94C80060E081E10E9464
:10058000C800C0E0D0E082E090E00E94720183E009
:1005900090E00E94720186E090E00E94720187E084
:1005A00090E00E94720163E070E082E090E00E94BF
:1005B000510167E070E086E090E00E9451012097D1
:1005C00011F30E940000DFCF80E092E090931101D0
:1005D000809310010895EE0FFF1F0590F491E02D18
:0605E0000994F894FFCF1E
:00000001FF
