:020000040000FA
:100000000C945D000C9485000C9485000C94850084
:100010000C9485000C9485000C9485000C9485004C
:100020000C9485000C9442030C9485000C9485007C
:100030000C9485000C94A1030C9485000C9485000D
:100040000C94F8020C9485000C94C6020C94A00247
:100050000C9485000C9485000C9485000C9485000C
:100060000C9485000C9485000000000024002700FB
:100070002A0000000000250028002B0004040404CE
:100080000404040402020202020203030303030342
:10009000010204081020408001020408102001021F
:1000A00004081020000000080002010000030407FB
:1000B0000000000000000000AB0311241FBECFEFC2
:1000C000D8E0DEBFCDBF21E0AAE1B1E001C01D92C2
:1000D000A43DB207E1F711E0A0E0B1E0ECE0F4E10B
:1000E00002C005900D92AA31B107D9F710E0CDE515
:1000F000D0E004C02197FE010E940C08CC35D10746
:10010000C9F70E94DE030C94040A0C940000E8EA8C
:10011000F0E02491E4E9F0E09491E0E8F0E0E4918B
:10012000EE23C9F0222339F0233001F1A8F4213065
:1001300019F1223029F1F0E0EE0FFF1FEE58FF4FCA
:10014000A591B4912FB7F894EC91811126C09095A8
:100150009E239C932FBF08952730A9F02830C9F023
:10016000243049F7209180002F7D03C0209180002A
:100170002F7720938000DFCF24B52F7724BDDBCFEE
:1001800024B52F7DFBCF2091B0002F772093B000B6
:10019000D2CF2091B0002F7DF9CF9E2BDACFAF9236
:1001A000BF92CF92DF92EF92FF920F931F93CF9364
:1001B000DF936C017B018B01040F151FEB015E01C6
:1001C000AE18BF08C017D10759F06991D601ED915B
:1001D000FC910190F081E02DC6010995892B79F7FA
:1001E000C501DF91CF911F910F91FF90EF90DF90AC
:1001F000CF90BF90AF900895FC01538D448D252F73
:1002000030E0842F90E0821B930B541710F0CF96B0
:10021000089501970895FC01918D828D981761F0E2
:10022000A28DAE0FBF2FB11D5D968C91928D9F5FF9
:100230009F73928F90E008958FEF9FEF08952FB7EF
:10024000F89480912A0190912B01A0912C01B091FA
:100250002D012FBF8093390190933A01A0933B0168
:10026000B0933C0181E391E00E940B0197FF26C00F
:100270002FB7F89480912A0190912B01A0912C0125
:10028000B0912D012FBF4091390150913A016091F9
:100290003B0170913C01841B950BA60BB70B409161
:1002A0003501509136016091370170913801841702
:1002B0009507A607B707B0F28FEF9FEF0895FC01EF
:1002C000918D828D981731F0828DE80FF11D858D0B
:1002D00090E008958FEF9FEF0895FC01918D228D9E
:1002E000892F90E0805C9F4F821B91098F73992723
:1002F000089581E391E00E946D0121E0892B09F4CA
:1003000020E0822F089580E090E0892B29F00E9460
:10031000790181110C9400000895FC01A48DA80FAF
:10032000B92FB11DA35ABF4F2C91848D90E0019637
:100330008F739927848FA689B7892C93A089B18957
:100340008C91837080648C93938D848D981306C0F8
:100350000288F389E02D80818F7D80830895EF925C
:10036000FF920F931F93CF93DF93EC0181E0888F6F
:100370009B8D8C8D98131AC0E889F989808185FF3F
:1003800015C09FB7F894EE89FF896083E889F989E1
:1003900080818370806480839FBF81E090E0DF91E3
:1003A000CF911F910F91FF90EF900895F62E0B8D36
:1003B00010E00F5F1F4F0F731127E02E8C8D8E11F1
:1003C0000CC00FB607FCFACFE889F989808185FF58
:1003D000F5CFCE010E948D01F1CFEB8DEC0FFD2FFB
:1003E000F11DE35AFF4FF0829FB7F8940B8FEA8913
:1003F000FB8980818062CFCFCF93DF93EC01888D22
:100400008823B9F0AA89BB89E889F9898C9185FD8F
:1004100003C0808186FD0DC00FB607FCF7CF8C911D
:1004200085FFF2CF808185FFEDCFCE010E948D0147
:10043000E9CFDF91CF910895CF93DF9390E0FC0156
:10044000E057FF4F249184589F4FFC0184918823EB
:10045000D1F090E0880F991FFC01E859FF4FA5915A
:10046000B491FC01EE58FF4FC591D49161110EC0BB
:100470009FB7F8948C91E22FE0958E238C9328817E
:10048000E223E8839FBFDF91CF9108958FB7F8945F
:10049000EC91E22BEC938FBFF6CFCF93DF93EC017F
:1004A0009093CF018093CE0161E089E00E941C020D
:1004B000E0E8F0E080818068808320912F01309116
:1004C0003001DE010E94E3072AE096958795779533
:1004D00067952A95D1F77093890060938800809181
:1004E0002E01806180938100DF91CF91089508955E
:1004F0000F931F93CF93DF93EC018881998100972D
:1005000059F02A813B812617370730F081E0DF91CF
:10051000CF911F910F9108958B016F5F7F4F0E94C4
:100520003709009759F0998388831B830A832C81AC
:100530003D81232B59F7FC011082E8CF80E0E7CF03
:100540001F920F920FB60F9211242F933F934F9348
:100550005F936F937F938F939F93AF93BF93EF932B
:10056000FF9381E391E00E948D01FF91EF91BF9194
:10057000AF919F918F917F916F915F914F913F913B
:100580002F910F900FBE0F901F9018951F920F92F2
:100590000FB60F9211242F938F939F93EF93FF9396
:1005A000E0914101F09142018081E0914701F09199
:1005B000480182FD1BC0908180914A018F5F8F733B
:1005C00020914B01821741F0E0914A01F0E0EF5C8D
:1005D000FE4F958F80934A01FF91EF919F918F91EC
:1005E0002F910F900FBE0F901F9018958081F4CF20
:1005F0001F920F920FB60F9211242F933F938F9358
:100600009F93AF93BF9380912A0190912B01A0916A
:100610002C01B0912D013091250123E0230F2D37BE
:1006200058F50196A11DB11D2093250180932A0143
:1006300090932B01A0932C01B0932D018091210167
:1006400090912201A0912301B09124010196A11D56
:10065000B11D8093210190932201A0932301B093B7
:100660002401BF91AF919F918F913F912F910F9056
:100670000FBE0F901F90189526E8230F0296A11D1C
:10068000B11DD2CF1F920F920FB60F9211242F934C
:100690003F934F935F936F937F938F939F93AF930A
:1006A000BF93EF93FF9380911F019091200180935E
:1006B000B20080911B0190911C01A0911D01B0918D
:1006C0001E010196A11DB11D80931B0190931C0179
:1006D000A0931D01B0931E0180911B0190911C01FC
:1006E000A0911D01B0911E0180911A01811118C0C5
:1006F00081E080931A0180911B0190911C01A091CF
:100700001D01B0911E0180931B0190931C01A093C9
:100710001D01B0931E01F0E0E0E0099510921A016E
:10072000FF91EF91BF91AF919F918F917F916F91C9
:100730005F914F913F912F910F900FBE0F901F909F
:1007400018951F920F920FB60F9211240F900FBEA3
:100750000F901F901895E1E3F1E01382128288EE6A
:1007600093E0A0E0B0E084839583A683B7838AE01A
:1007700091E09183808385EC90E09587848784EC79
:1007800090E09787868780EC90E0918B808B81EC5E
:1007900090E0938B828B82EC90E0958B848B86EC3F
:1007A00090E0978B868B118E128E138E148E80E0C4
:1007B00092E09093CF018093CE010895CF93DF9381
:1007C000CDB7DEB728970FB6F894DEBF0FBECDBF0A
:1007D000789484B5826084BD84B5816084BD85B51C
:1007E000826085BD85B5816085BD80916E00816028
:1007F00080936E00109281008091810082608093CE
:1008000081008091810081608093810000E810E088
:10081000809180008160809380008091B10084602D
:100820008093B1008091B00081608093B00080918E
:100830007A00846080937A0080917A00826080934D
:100840007A0080917A00816080937A0080917A00AA
:10085000806880937A001092C10010922901109252
:10086000280161E082E00E941C0261E083E00E94B6
:100870001C0261E086E00E941C0261E087E00E94A9
:100880001C0261E089E00E941C0261E084E00E9499
:100890001C0260E08EE00E941C0260E08FE00E947B
:1008A0001C0260E080E10E941C0260E081E10E9485
:1008B0001C0280E1809381001092800081E080938F
:1008C0002E011093300100932F01109387000093A5
:1008D000860081E180938100E0914101F091420125
:1008E00082E08083E0913D01F0913E011082E09131
:1008F0003F01F09140018FEC808310924901E0911B
:100900004501F091460186E08083E0914301F0913A
:100910004401808180618083E0914301F091440132
:10092000808188608083E0914301F091440180815F
:1009300080688083E0914301F091440180818F7D44
:10094000808380E093E090932701809326010E94AA
:100950004D0281E00E9487008BEC97E00197F1F750
:1009600080E00E94870083E4B82E412C512C320194
:10097000539400E010E081E391E00E946D011816AD
:1009800019060CF05CC01A8219821C821B821E821E
:100990001D8270E060E0CE0101960E9478022981FC
:1009A0003A8181112FC02115310519F0C9010E942A
:1009B000AE081A8219821E821D821C821B820E942E
:1009C0001F0197FD27C08A30910521F18F8318867A
:1009D000ED80FE802FEFE21AF20AB701CE010196F8
:1009E0000E947802882359F329813A818D819E8162
:1009F000BE01695F7F4F820F931F0E94FD09FE8237
:100A0000ED82DDCF1E821D8268E171E0C9010E9486
:100A1000FD09D5CFE980FA8060E070E0CB01E114F8
:100A2000F10419F0C7010E949905709329016093A0
:100A30002801E114F10419F0C7010E94AE08B09238
:100A40007C0080917A00806480937A0080917A00A3
:100A500086FDFCCF8091780020917900C09028011C
:100A6000D09029010D2C000CEE08FF08322F282F02
:100A7000032E000C440B550B325041095109A5E3DC
:100A8000BCE00E94D006A30192010E94C407662721
:100A90007727621B730B072E000C880B990B0E94A3
:100AA000D70523E333E343E75FE30E94120620E028
:100AB00030E040EF51E40E9422070E948E07C61AE0
:100AC000D70AE80AF90A80912601909127011C149F
:100AD0001D041E041F043CF501969093270180938A
:100AE000260180912601909127018F3823E09207FB
:100AF00014F08EE893E08D3522E0920714F48DE532
:100B000092E090932701809326010E944D020115E7
:100B1000110509F430CF0E947901882309F42BCF05
:100B20000E94000028CFCD28CE28CF28D1F20197EF
:100B3000D4CF1F93FC0199278827BC01E894119119
:100B40001032E9F3193010F01E30C8F31B3251F0A7
:100B50001D3249F4689406C00E94C005610F711DE2
:100B6000811D911D119110531A30B0F33EF49095F0
:100B70008095709561957F4F8F4F9F4F1F9108957E
:100B8000592F482F372F262F660F771F881F991F41
:100B9000660F771F881F991F620F731F841F951F91
:100BA000660F771F881F991F0895E89409C097FB67
:100BB0003EF490958095709561957F4F8F4F9F4F34
:100BC0009923A9F0F92F96E9BB279395F695879578
:100BD00077956795B795F111F8CFFAF4BB0F11F43B
:100BE00060FF1BC06F5F7F4F8F4F9F4F16C08823E2
:100BF00011F096E911C0772321F09EE8872F762F18
:100C000005C0662371F096E8862F70E060E02AF058
:100C10009A95660F771F881FDAF7880F9695879544
:100C200097F908950E9425060C9496060E9488065E
:100C300038F00E948F0620F0952311F00C947F0667
:100C40000C94850611240C94CA060E94A70670F322
:100C5000959FC1F3950F50E0551F629FF001729F61
:100C6000BB27F00DB11D639FAA27F00DB11DAA1F70
:100C7000649F6627B00DA11D661F829F2227B00DBD
:100C8000A11D621F739FB00DA11D621F839FA00D48
:100C9000611D221F749F3327A00D611D231F849F98
:100CA000600D211D822F762F6A2F11249F575040EF
:100CB0009AF0F1F088234AF0EE0FFF1FBB1F661F6A
:100CC000771F881F91505040A9F79E3F510580F033
:100CD0000C947F060C94CA065F3FE4F3983ED4F36D
:100CE000869577956795B795F795E7959F5FC1F7D7
:100CF000FE2B880F911D9695879597F9089597F982
:100D00009F6780E870E060E008959FEF80EC0895B1
:100D100000240A94161617061806090608950024DA
:100D20000A9412161306140605060895092E039454
:100D3000000C11F4882352F0BB0F40F4BF2B11F4C8
:100D400060FF04C06F5F7F4F8F4F9F4F089557FD27
:100D50009058440F551F59F05F3F71F04795880F29
:100D600097FB991F61F09F3F79F0879508951216C0
:100D700013061406551FF2CF4695F1DF08C016166C
:100D800017061806991FF1CF86957105610508941D
:100D90000895E894BB2766277727CB0197F9089534
:100DA0000E941207A59F900DB49F900DA49F800DE7
:100DB000911D112408952F923F924F925F926F924E
:100DC0007F928F929F92AF92BF92CF92DF92EF92DB
:100DD000FF920F931F93CF93DF93CDB7DEB7CA1B5C
:100DE000DB0B0FB6F894DEBF0FBECDBF09942A8887
:100DF000398848885F846E847D848C849B84AA842F
:100E0000B984C884DF80EE80FD800C811B81AA81BB
:100E1000B981CE0FD11D0FB6F894DEBF0FBECDBF86
:100E2000ED010895A29FB001B39FC001A39F700D73
:100E3000811D1124911DB29F700D811D1124911DE2
:100E400008955058BB27AA270E9439070C9496068C
:100E50000E94880638F00E948F0620F039F49F3FE8
:100E600019F426F40C9485060EF4E095E7FB0C9437
:100E70007F06E92F0E94A70658F3BA176207730787
:100E80008407950720F079F4A6F50C94C9060EF4B2
:100E9000E0950B2EBA2FA02D0B01B90190010C018A
:100EA000CA01A0011124FF27591B99F0593F50F4A2
:100EB000503E68F11A16F040A22F232F342F4427FA
:100EC000585FF3CF469537952795A795F0405395F2
:100ED000C9F77EF41F16BA0B620B730B840BBAF0C2
:100EE0009150A1F0FF0FBB1F661F771F881FC2F72D
:100EF0000EC0BA0F621F731F841F48F48795779541
:100F00006795B795F7959E3F08F0B0CF9395880FFA
:100F100008F09927EE0F9795879508950E949507F9
:100F20006894B1110C94CA0608950E94AF0688F027
:100F30009F5798F0B92F9927B751B0F0E1F0660F9D
:100F4000771F881F991F1AF0BA95C9F714C0B130DE
:100F500091F00E94C906B1E008950C94C906672F6C
:100F6000782F8827B85F39F0B93FCCF3869577950D
:100F70006795B395D9F73EF49095809570956195F6
:100F80007F4F8F4F9F4F0895052E97FB1EF40094BF
:100F90000E94DB0757FD07D00E94EA0707FC03D039
:100FA0004EF40C94DB0750954095309521953F4FBA
:100FB0004F4F5F4F089590958095709561957F4F45
:100FC0008F4F9F4F08950E941207B7FF0895821B0D
:100FD000930B0895A1E21A2EAA1BBB1BFD010DC0A5
:100FE000AA1FBB1FEE1FFF1FA217B307E407F507D9
:100FF00020F0A21BB30BE40BF50B661F771F881FB5
:10100000991F1A9469F760957095809590959B014A
:10101000AC01BD01CF010895EE0FFF1F0590F491C3
:10102000E02D09940F931F93CF93DF9382309105A6
:1010300010F482E090E0E091D201F091D30130E031
:1010400020E0B0E0A0E0309799F42115310509F4D3
:101050004AC0281B390B24303105D8F58A819B8181
:101060006115710589F1FB0193838283FE0111C033
:10107000408151810281138148175907E0F04817D8
:10108000590799F4109761F012960C9312971396E2
:101090001C933296CF01DF91CF911F910F9108954C
:1010A0000093D2011093D301F4CF2115310551F0F3
:1010B0004217530738F0A901DB019A01BD01DF0196
:1010C000F801C1CFEF01F9CF9093D3018093D20102
:1010D000CDCFFE01E20FF31F81939193225031098E
:1010E00039832883D7CF2091D0013091D101232B90
:1010F00041F420910201309103013093D1012093FA
:10110000D00120910001309101012115310541F4F8
:101110002DB73EB74091040150910501241B350BBA
:10112000E091D001F091D101E217F307A0F42E1B5A
:101130003F0B2817390778F0AC014E5F5F4F24173B
:10114000350748F04E0F5F1F5093D1014093D001F7
:10115000819391939FCFF0E0E0E09CCFCF93DF931A
:101160000097E9F0FC01329713821282A091D2011C
:10117000B091D301ED0130E020E01097A1F420817F
:101180003181820F931F2091D0013091D101281716
:10119000390709F061C0F093D101E093D001DF91EC
:1011A000CF910895EA01CE17DF07E8F54A815B8108
:1011B0009E0141155105B1F7E901FB83EA8349918D
:1011C0005991C40FD51FEC17FD0761F480819181FF
:1011D0000296840F951FE901998388838281938108
:1011E0009B838A83F0E0E0E012968D919C911397A7
:1011F0000097B9F52D913C911197CD010296820F80
:10120000931F2091D0013091D1012817390739F669
:10121000309751F51092D3011092D201B093D101C1
:10122000A093D001BCCFD383C28340815181840F6E
:10123000951FC817D90761F44E5F5F4F8881998168
:10124000480F591F518340838A819B8193838283F6
:101250002115310509F0B0CFF093D301E093D2010D
:101260009ECFFD01DC01C0CF13821282D7CFB0E048
:10127000A0E0EDE3F9E00C94DD068C01009751F459
:10128000CB010E9412088C01C801CDB7DEB7E0E1A6
:101290000C94F906FC01E60FF71F9C01225031095E
:1012A000E217F30708F49DC0D901CD91DC911197A5
:1012B000C617D70798F0C530D10530F3CE01049793
:1012C0008617970708F3C61BD70B2297C193D193B4
:1012D0006D937C93CF010E94AE08D6CF5B01AC1A10
:1012E000BD0A4C018C0E9D1EA091D201B091D3017C
:1012F000512C412CF12CE12C109731F58091D0012B
:101300009091D1018815990509F05CC046165706E1
:1013100008F058C08091000190910101009741F4BC
:101320008DB79EB74091040150910501841B950B28
:10133000E817F90708F055C0F093D101E093D00108
:10134000F90171836083A0CF8D919C9111971296C2
:101350006C90129713967C901397A815B90559F5C0
:101360006C0142E0C40ED11CCA14DB0420F1AC01B4
:101370004A195B09DA011296159780F0628273822E
:1013800051834083D9016D937C93E114F10471F092
:10139000D7011396FC93EE93129776CF22968C0F7B
:1013A0009D1FF90191838083F301EFCFF093D30167
:1013B000E093D20169CF4816590608F42C017D014B
:1013C000D3019ACFCB010E9412087C01009749F00B
:1013D000AE01B8010E94F409C8010E94AE0887015D
:1013E00053CF10E000E050CFFB01DC0102C00190C0
:1013F0000D9241505040D8F70895FB01DC01019057
:101400000D920020E1F70895F894FFCF0000D40179
:10141000800000000000AF01CF00FC00FC016D0166
:061420000B015F0100005A
:107E0000112484B714BE81FFF0D085E080938100F7
:107E100082E08093C00088E18093C10086E0809377
:107E2000C20080E18093C4008EE0C9D0259A86E02C
:107E300020E33CEF91E0309385002093840096BBD3
:107E4000B09BFECF1D9AA8958150A9F7CC24DD24C4
:107E500088248394B5E0AB2EA1E19A2EF3E0BF2EE7
:107E6000A2D0813461F49FD0082FAFD0023811F036
:107E7000013811F484E001C083E08DD089C08234E0
:107E800011F484E103C0853419F485E0A6D080C0E4
:107E9000853579F488D0E82EFF2485D0082F10E0AE
:107EA000102F00270E291F29000F111F8ED06801E7
:107EB0006FC0863521F484E090D080E0DECF843638
:107EC00009F040C070D06FD0082F6DD080E0C81688
:107ED00080E7D80618F4F601B7BEE895C0E0D1E017
:107EE00062D089930C17E1F7F0E0CF16F0E7DF06D8
:107EF00018F0F601B7BEE89568D007B600FCFDCFD4
:107F0000A601A0E0B1E02C9130E011968C91119780
:107F100090E0982F8827822B932B1296FA010C0160
:107F200087BEE89511244E5F5F4FF1E0A038BF0790
:107F300051F7F601A7BEE89507B600FCFDCF97BE46
:107F4000E89526C08437B1F42ED02DD0F82E2BD052
:107F50003CD0F601EF2C8F010F5F1F4F84911BD097
:107F6000EA94F801C1F70894C11CD11CFA94CF0C13
:107F7000D11C0EC0853739F428D08EE10CD085E9AC
:107F80000AD08FE07ACF813511F488E018D01DD067
:107F900080E101D065CF982F8091C00085FFFCCF94
:107FA0009093C60008958091C00087FFFCCF809118
:107FB000C00084FD01C0A8958091C6000895E0E648
:107FC000F0E098E1908380830895EDDF803219F02E
:107FD00088E0F5DFFFCF84E1DECF1F93182FE3DFCA
:107FE0001150E9F7F2DF1F91089580E0E8DFEE27F6
:047FF000FF270994CA
:027FFE00040479
:00000001FF
