:020000040000FA
:100000000C945D000C9485000C9485000C94850084
:100010000C9485000C9485000C9485000C9485004C
:100020000C9485000C941B040C9485000C948500A2
:100030000C9485000C948D040C9485000C94850020
:100040000C94D1030C9485000C949F030C947903B9
:100050000C9485000C9485000C9485000C9485000C
:100060000C9485000C9485000000000024002700FB
:100070002A0000000000250028002B0004040404CE
:100080000404040402020202020203030303030342
:10009000010204081020408001020408102001021F
:1000A00004081020000000080002010000030407FB
:1000B0000000000000000000B20411241FBECFEFBA
:1000C000D8E0DEBFCDBF11E0A0E0B1E0EEEDFCE096
:1000D00002C005900D92A835B107D9F722E0A8E536
:1000E000B1E001C01D92A031B207E1F710E0CDE50B
:1000F000D0E004C02197FE010E946706CC35D107ED
:10010000C9F70E94E5040C946D060C940000AF92B0
:10011000BF92CF92DF92EF92FF920F931F93CF93F4
:10012000DF936C017B018B01040F151FEB015E0156
:10013000AE18BF08C017D10759F06991D601ED91EB
:10014000FC910190F081E02DC6010995892B79F78A
:10015000C501DF91CF911F910F91FF90EF90DF903C
:10016000CF90BF90AF900895FC01538D448D252F03
:1001700030E0842F90E0821B930B541710F0CF9641
:10018000089501970895FC01918D828D981761F073
:10019000A28DAE0FBF2FB11D5D968C91928D9F5F8A
:1001A0009F73928F90E008958FEF9FEF0895FC0169
:1001B000918D828D981731F0828DE80FF11D858D1C
:1001C00090E008958FEF9FEF0895FC01918D228DAF
:1001D000892F90E0805C9F4F821B91098F73992734
:1001E000089581E791E00E94E50021E0892B09F460
:1001F00020E0822F089580E090E0892B29F00E9472
:10020000F10081110C9400000895FC01A48DA80F49
:10021000B92FB11DA35ABF4F2C91848D90E0019648
:100220008F739927848FA689B7892C93A089B18968
:100230008C91837080648C93938D848D981306C009
:100240000288F389E02D80818F7D80830895EF926D
:10025000FF920F931F93CF93DF93EC0181E0888F80
:100260009B8D8C8D98131AC0E889F989808185FF50
:1002700015C09FB7F894EE89FF896083E889F989F2
:1002800080818370806480839FBF81E090E0DF91F4
:10029000CF911F910F91FF90EF900895F62E0B8D47
:1002A00010E00F5F1F4F0F731127E02E8C8D8E1102
:1002B0000CC00FB607FCFACFE889F989808185FF69
:1002C000F5CFCE010E940501F1CFEB8DEC0FFD2F94
:1002D000F11DE35AFF4FF0829FB7F8940B8FEA8924
:1002E000FB8980818062CFCFCF93DF93EC01888D33
:1002F0008823B9F0AA89BB89E889F9898C9185FDA1
:1003000003C0808186FD0DC00FB607FCF7CF8C912E
:1003100085FFF2CF808185FFEDCFCE010E940501E0
:10032000E9CFDF91CF91089590E0FC01EC55FF4FAC
:100330002491FC01E057FF4F3491FC01E458FF4F3A
:10034000E491EE23C9F0222339F0233001F1A8F41F
:10035000213019F1223029F1F0E0EE0FFF1FEE58A5
:10036000FF4FA591B4918FB7F894EC91611126C01D
:1003700030953E233C938FBF08952730A9F0283055
:10038000C9F0243049F7809180008F7D03C08091AF
:1003900080008F7780938000DFCF84B58F7784BD16
:1003A000DBCF84B58F7DFBCF8091B0008F778093BA
:1003B000B000D2CF8091B0008F7DF9CF3E2BDACF45
:1003C000CF93DF9390E0FC01E057FF4F24918458D6
:1003D0009F4FFC0184918823D1F090E0880F991FF2
:1003E000FC01E859FF4FA591B491FC01EE58FF4F75
:1003F000C591D49161110EC09FB7F8948C91E22FF2
:10040000E0958E238C932881E223E8839FBFDF91C0
:10041000CF9108958FB7F894EC91E22BEC938FBFB6
:10042000F6CFCF93DF93EC0190930F0280930E02EF
:1004300061E089E00E94E001E0E8F0E0808180680E
:100440008083A0916F01B09170019E010E944606C9
:100450002AE096958795779567952A95D1F77093B9
:1004600089006093880080916E0180618093810093
:10047000DF91CF9108958E50806480937C008091AD
:100480007A00806480937A0080917A0086FDFCCFA8
:1004900080917800909179000895FC0101900020EE
:1004A000E9F73197AF01481B590BBC0181E791E097
:1004B0000C9487008F929F92AF92BF920F931F93DD
:1004C000CF93DF93CDB7DEB7A1970FB6F894DEBF19
:1004D0000FBECDBF19A2423008F44AE08E010F5D75
:1004E0001F4F842E912CB12CA12CA50194010E94A8
:1004F0000506E62FB901CA01EA30F4F4E05DD8013F
:10050000EE938D01232B242B252B79F790E080E0AF
:10051000109719F0CD010E944D02A1960FB6F894E4
:10052000DEBF0FBECDBFDF91CF911F910F91BF9066
:10053000AF909F908F900895E95CE1CFCF92DF92CA
:10054000EF92FF92CF93DF936C01990FEE08FF08B3
:10055000F7FE19C06DE281E791E00E942701EC01EE
:1005600066277727CB016C197D098E099F094AE020
:100570000E945A028C0F9D1FDF91CF91FF90EF9048
:10058000DF90CF9008954AE0C701B601DF91CF9187
:10059000FF90EF90DF90CF900C945A028F929F9231
:1005A000AF92BF92CF92DF92EF92FF9280910E02B4
:1005B00090910F020896833A22E0920714F08EE59C
:1005C00091E00E94110284E191E00E944D0280912D
:1005D0000E0290910F020E949E0286E291E00E941C
:1005E0004D028EE00E943B022DEB3FE1DC010E94B8
:1005F000550620E8822E912CA12CB12CA501940146
:100600000E942706CA01B901882799274AE00E945B
:100610005A0283E391E00E944D028FE00E943B0268
:100620009C01990F440B550B325041095109A5E328
:10063000BCE00E945C06C12CD12C7601D394A701AA
:1006400096010E942706C9010E949E028DE391E057
:100650000E944D0280E10E943B022DEB3FE1DC0154
:100660000E945506A50194010E942706CA01B901FE
:10067000882799274AE00E945A0287E491E00E9465
:100680004D0281E10E943B029C01990F440B550BE6
:10069000325041095109A5E3BCE00E945C06A70164
:1006A00096010E942706C9010E949E0281E591E001
:1006B0000E944D0284E591E00E944D02E09000010D
:1006C000F09001016E2D83E00E94940181E090E0A2
:1006D000EF2811F090E080E09093010180930001F9
:1006E000FF90EF90DF90CF90BF90AF909F908F9052
:1006F00008951F920F920FB60F9211242F933F93DC
:100700004F935F936F937F938F939F93AF93BF9319
:10071000EF93FF9381E791E00E940501FF91EF9134
:10072000BF91AF919F918F917F916F915F914F9109
:100730003F912F910F900FBE0F901F9018951F9211
:100740000F920FB60F9211242F938F939F93EF93D5
:10075000FF93E0918101F09182018081E091870116
:10076000F091880182FD1BC0908180918A018F5F8A
:100770008F7320918B01821741F0E0918A01F0E0A4
:10078000EF58FE4F958F80938A01FF91EF919F91D3
:100790008F912F910F900FBE0F901F901895808111
:1007A000F4CF1F920F920FB60F9211242F933F9305
:1007B0008F939F93AF93BF9380915D0190915E0162
:1007C000A0915F01B091600130915C0123E0230FA3
:1007D0002D3758F50196A11DB11D20935C01809322
:1007E0005D0190935E01A0935F01B09360018091E1
:1007F000580190915901A0915A01B0915B01019665
:10080000A11DB11D8093580190935901A0935A01E5
:10081000B0935B01BF91AF919F918F913F912F91C9
:100820000F900FBE0F901F90189526E8230F029689
:10083000A11DB11DD2CF1F920F920FB60F9211249E
:100840002F933F934F935F936F937F938F939F93D8
:10085000AF93BF93EF93FF938091660190916701EF
:100860008093B2008091620190916301A091640134
:10087000B09165010196A11DB11D80936201909315
:100880006301A0936401B09365018091620190912E
:100890006301A0916401B091650140916A0150919A
:1008A0006B0160916C0170916D0184179507A6072B
:1008B000B70710F18091610181111EC081E0809322
:1008C00061018091620190916301A0916401B091F6
:1008D0006501841B950BA60BB70B80936201909367
:1008E0006301A0936401B0936501E0916801F09108
:1008F0006901099510926101FF91EF91BF91AF914C
:100900009F918F917F916F915F914F913F912F9127
:100910000F900FBE0F901F9018951F920F920FB659
:100920000F9211242F933F934F935F936F937F9375
:100930008F939F93AF93BF93EF93FF93F0E0E0E02B
:100940000995FF91EF91BF91AF919F918F917F9109
:100950006F915F914F913F912F910F900FBE0F902C
:100960001F901895E1E7F1E01382128288EE93E080
:10097000A0E0B0E084839583A683B78386E091E00E
:100980009183808385EC90E09587848784EC90E068
:100990009787868780EC90E0918B808B81EC90E04C
:1009A000938B828B82EC90E0958B848B86EC90E02D
:1009B000978B868B118E128E138E148E80E092E0B0
:1009C00090930F0280930E020895789484B582600C
:1009D00084BD84B5816084BD85B5826085BD85B5E3
:1009E000816085BD80916E00816080936E00109261
:1009F00081008091810082608093810080918100DC
:100A0000816080938100C0E8D0E0809180008160A7
:100A1000809380008091B10084608093B1008091C8
:100A2000B00081608093B00080917A0084608093F0
:100A30007A0080917A00826080937A0080917A00B7
:100A4000816080937A0080917A00806880937A0038
:100A50001092C10061E082E00E94E00161E083E069
:100A60000E94E00161E086E00E94E00161E087E031
:100A70000E94E00161E089E00E94E00161E084E021
:100A80000E94E00160E08EE00E94E00160E08FE003
:100A90000E94E00160E080E10E94E00160E081E10D
:100AA0000E94E00180E1809381001092800081E04B
:100AB00080936E01D0937001C0936F01D093870033
:100AC000C093860081E1809381008CE291E0A0E0F8
:100AD000B0E080936A0190936B01A0936C01B09396
:100AE0006D018EEC92E09093690180936801809192
:100AF00070008E7F809370008091B0008C7F809317
:100B0000B0008091B100877F8093B1008091B600E2
:100B10008F7D8093B600809170008D7F80937000F0
:100B20008091B10084608093B1008091B1008C7F8E
:100B30008093B10086E090E0909367018093660116
:100B4000109262011092630110926401109265018B
:100B50001092610180916601909167018093B200CB
:100B600080917000816080937000E0918101F0912C
:100B7000820182E08083E0917D01F0917E0110820C
:100B8000E0917F01F09180018FEC808310928901C8
:100B9000E0918501F091860186E08083E0918301F8
:100BA000F0918401808180618083E0918301F091E4
:100BB0008401808188608083E0918301F0918401C9
:100BC000808180688083E0918301F091840180813D
:100BD0008F7D808380E091E00E94110261E084E0DB
:100BE0000E9494018BEC97E00197F1F760E084E0BC
:100BF0000E949401C0E0D0E02097F1F30E94F10040
:100C00008823D1F30E940000F7CFA1E21A2EAA1B7D
:100C1000BB1BFD010DC0AA1FBB1FEE1FFF1FA217AC
:100C2000B307E407F50720F0A21BB30BE40BF50BA9
:100C3000661F771F881F991F1A9469F76095709532
:100C4000809590959B01AC01BD01CF010895052EC3
:100C500097FB1EF400940E943E0657FD07D00E94A9
:100C6000050607FC03D04EF40C943E0650954095C3
:100C7000309521953F4F4F4F5F4F08959095809548
:100C8000709561957F4F8F4F9F4F0895A29FB00140
:100C9000B39FC001A39F700D811D1124911DB29FB0
:100CA000700D811D1124911D08950E944606B7FF05
:100CB0000895821B930B08950E944606A59F900DF0
:100CC000B49F900DA49F800D911D11240895EE0FE7
:100CD000FF1F0590F491E02D0994F894FFCF0100D7
:100CE0000000000027018700B4007401E500C30084
:100CF000D70050574D2044757479204379636C6553
:100D0000203D20002F313032342C205648203D2009
:100D1000006D562C204948203D20006D412C205666
:100D20004C203D20006D562C20494C203D20006D6C
:060D300041000D0A000065
:107E0000112484B714BE81FFF0D085E080938100F7
:107E100082E08093C00088E18093C10086E0809377
:107E2000C20080E18093C4008EE0C9D0259A86E02C
:107E300020E33CEF91E0309385002093840096BBD3
:107E4000B09BFECF1D9AA8958150A9F7CC24DD24C4
:107E500088248394B5E0AB2EA1E19A2EF3E0BF2EE7
:107E6000A2D0813461F49FD0082FAFD0023811F036
:107E7000013811F484E001C083E08DD089C08234E0
:107E800011F484E103C0853419F485E0A6D080C0E4
:107E9000853579F488D0E82EFF2485D0082F10E0AE
:107EA000102F00270E291F29000F111F8ED06801E7
:107EB0006FC0863521F484E090D080E0DECF843638
:107EC00009F040C070D06FD0082F6DD080E0C81688
:107ED00080E7D80618F4F601B7BEE895C0E0D1E017
:107EE00062D089930C17E1F7F0E0CF16F0E7DF06D8
:107EF00018F0F601B7BEE89568D007B600FCFDCFD4
:107F0000A601A0E0B1E02C9130E011968C91119780
:107F100090E0982F8827822B932B1296FA010C0160
:107F200087BEE89511244E5F5F4FF1E0A038BF0790
:107F300051F7F601A7BEE89507B600FCFDCF97BE46
:107F4000E89526C08437B1F42ED02DD0F82E2BD052
:107F50003CD0F601EF2C8F010F5F1F4F84911BD097
:107F6000EA94F801C1F70894C11CD11CFA94CF0C13
:107F7000D11C0EC0853739F428D08EE10CD085E9AC
:107F80000AD08FE07ACF813511F488E018D01DD067
:107F900080E101D065CF982F8091C00085FFFCCF94
:107FA0009093C60008958091C00087FFFCCF809118
:107FB000C00084FD01C0A8958091C6000895E0E648
:107FC000F0E098E1908380830895EDDF803219F02E
:107FD00088E0F5DFFFCF84E1DECF1F93182FE3DFCA
:107FE0001150E9F7F2DF1F91089580E0E8DFEE27F6
:047FF000FF270994CA
:027FFE00040479
:00000001FF
